:030000000219885A
:1019880075C7AA75C75575FD5A75C7AA75C7557520
:10199800FDA5787FE4F6D8FD9000007FFF7E03E484
:0C19A800F0A3DFFCDEFA7581550219EF98
:051E6300033F01000136
:1018A600751404E4F5B1F5B2F5B3F5B4F5ACF5ADE0
:1018B60053B1F743B20853B1DF43B22053B3F743F2
:1018C600B40843B31053B4EF121E247F007EC27DCA
:1018D600017C00121A3443C96053C9EF53C8FE4352
:1018E600C98043C90875CAEE75CB85E4F5CCF5CD3C
:1018F600439B80D2AFD2CA7F817E47121E548F226D
:10190600E522B4A8297F827E47121E548F3D7F832D
:101916007E47121E548F3EE53DD394014003E4F505
:101926003DE53ED394014003E4F53E121B69C285B2
:101936007F327E007D007C00121D47D28530011C5F
:10194600C201053C0515E515D394014003E4F515E0
:101956000514E514D394044003E4F514121A9D30DB
:101966000410E525C3940350D4E52560D0121DF379
:1019760080CBE53BC3940350C4E53B60C0121DCB4E
:0219860080BB24
:101A9D00AF90530710859016531608EF4216E516B2
:101AAD00B41802801B7F017E007D007C00121D4753
:101ABD00AF90530710AE90530608EF4206BE1804C0
:101ACD00C2048020E516B5061454F770057525017E
:101ADD00800EE51654EF70057525028003E4F5259B
:101AED00E5257008C205C203C200800A20040785DF
:071AFD00253BD205D20400D5
:011B040022BE
:101E0E00300505E4F53C800C200309E53CB40404E0
:061E1E00D203D322C3220F
:101B6900E53D700CE53E7008F526D283D2848035B8
:101B7900E53D700EE53EB40109752601D283C284A4
:101B89008023E53DB4010DE53E7009752602C28347
:101B9900D2848011E53DB4010CE53EB401077526F8
:101BA90003C283C2847DA87F817E4712166DAD3D35
:101BB9007F827E4712166DAD3E7F837E4702166D8A
:101DF300E52524FE600A04700F121E0E500A8005AA
:0B1E0300121E0E5003E4F53BC2052246
:101DCB00AF3BE4F53BEF14701EC2857F327E007D86
:101DDB00007C00121D47D285053DE53DD3940140A3
:071DEB0003E4F53D121B6942
:011DF20022CE
:03002B00021E5C56
:071E5C00C2CFB292D20132A5
:101D920053B1BF53B2BF53B17F53B27F7598504313
:101DA2008920438780438E1053C4DFAB07AA06A95C
:101DB20005A8047F407E427D0F7C001217F0EF04DD
:091DC200F404F58DD28ED29922B1
:101A34008F198E188D178C1653B1BF53B2BF53B183
:101A44007F53B27F75985043878053C4F843C420B2
:101A5400AB19AA18A917A8167F407E427D0F7C00F7
:101A64001217F0C374FF9FFF74FF9EFEE49DFDE414
:101A74009CFC78081218938FC6AB19AA18A917A84A
:101A8400167F407E427D0F7C001217F0C374FF9FC7
:091A9400FF8FC543C408D299225A
:071E34003098FDAF99C29840
:011E3B002284
:081E3C00C2998F993099FD2233
:101B05008F1F8E1E8D1D8C1C53B1FB53B2FB53B31F
:101B1500BF53B4BF75F85075C40853C4DFAB1FAAD3
:101B25001EA91DA81C7F407E427D0F7C001217F068
:101B3500C374FF9FFF74FF9EFEE49DFDE49CFC784B
:101B4500081218938FC6AB1FAA1EA91DA81C7F409B
:101B55007E427D0F7C001217F0C374FF9FFF8FC577
:041B650043C408224B
:071E440030F8FDAF9AC2F86F
:011E4B002274
:081E4C00C2F98F9A30F9FD2262
:101CB1008F458E448D438C42538EF7438901D28CDC
:101CC100E4FFFEFDFCAB45AA44A943A842C3121898
:101CD100826025758A7E758CFF308DFDC28DE5454C
:101CE10024FFF545E54434FFF544E54334FFF5436E
:0B1CF100E54234FFF54280C8C28C229F
:101CFC008F498E488D478C46538EF7438901D28C81
:101D0C00E4FFFEFDFCAB49AA48A947A846C312183C
:101D1C00826025758ACA758CFA308DFDC28DE549B5
:101D2C0024FFF549E54834FFF548E54734FFF5470E
:0B1D3C00E54634FFF54680C8C28C224B
:101D47008F1A8E198D188C17538EEF438910D28EE8
:101D5700E4FFFEFDFCAB1AAA19A918A817C31218AD
:101D6700826025758BEA758DCB308FFDC28FE51AA2
:101D770024FFF51AE51934FFF519E51834FFF518AE
:0B1D8700E51734FFF51780C8C28E225C
:101BC9008F4D8E4C8D4B8C4A53C9BF53C9DF43C9C6
:101BD90010D2CAE4FFFEFDFCAB4DAA4CA94BA84AA2
:101BE900C3121882602575CC3075CDF830CFFDC28F
:101BF900CFE54D24FFF54DE54C34FFF54CE54B346D
:0E1C0900FFF54BE54A34FFF54A80C8C2CA22F7
:101C17008F518E508D4F8C4E75C40743C408E4FF17
:101C2700FEFDFCAB51AA50A94FA84EC31218826003
:101C37002875C52C75C6CFE5C430E4FB53C4EFE562
:101C47005124FFF551E55034FFF550E54F34FFF5CA
:0D1C57004FE54E34FFF54E80C553C4F72213
:101C64008F558E548D538C5275C40743C408E4FFBA
:101C7400FEFDFCAB55AA54A953A852C312188260A6
:101C84002875C5D875C6FFE5C430E4FB53C4EFE539
:101C94005524FFF555E55434FFF554E55334FFF569
:0D1CA40053E55234FFF55280C553C4F722BA
:101E240043B38053B47F43AC0153ADFE43A80122B6
:0800060053ACFE53ADFEC2B085
:10000E007509641509209704E50970F7C2B07509E2
:0B001E00641509309704E50970F72213
:030003000214DA0A
:1014DA00C0E0C083C082C0D075D000C007C2A820B7
:1014EA009702C15A7509641509309704E50970F71E
:1014FA00750A087509641509209704E50970F7E566
:10150A001225E0F51230B00343120175096415097A
:10151A00309704E50970F7D50AD912000643AC01E1
:10152A0053ADFEE51254FE64A06002C15A75110261
:10153A00750A087509641509209704E50970F7E525
:10154A001325E0F51330B003431301750964150937
:10155A00309704E50970F7D50AD912000643AC01A1
:10156A0053ADFED511CA7509641509209704E5091A
:10157A0070F7750964A2B09206309716AF0915097B
:10158A00EF600FA2B092073006EF2007EC75080152
:10159A0080E7750A08E51225E0F512750964150950
:1015AA00209704E50970F730B00343120175096406
:1015BA001509309704E50970F7D50AD9120006E52E
:1015CA001264A16002C15AE53D7008750E12750FCA
:1015DA00D28006750E14750FAC750B00750C00C31E
:1015EA00E50C950FE50B950E5066E53D1460050474
:1015FA0070228010E50CB4C00BE50BB41206750B13
:10160A0012750CD2742E250CF5827400350BF583F5
:10161A00E493F510750A08E51030E704D2B08002A9
:10162A00C2B07509641509209704E50970F77509B0
:10163A00641509309704E50970F7E51025E0F510FF
:10164A00D50AD412000E050CE50C7093050B808F99
:10165A0043AC0153ADFED2A8D007D0D0D082D083FC
:03166A00D0E0329B
:10002E00800000000000600A84004200000B000007
:10003E008500420000030000840040300A41882001
:10004E008480403016A4A0E6850040302307B9AC6A
:10005E00858040302F6AD272800000D40804CCCC48
:10006E008400403400000740850040340000074003
:10007E008400405402C0C0008400405402C1C0003D
:10008E008400405402C2C0008400405402C3C00029
:10009E008400405402C4C0008400405402C5C00015
:1000AE008400405402C6C0008400405402C7C00001
:1000BE008400405402C8C0008400405402C9C000ED
:1000CE008400405402CAC0008400405402CBC000D9
:1000DE008400405402CCC0008400405402CDC000C5
:1000EE008400405402CEC0008400405402CFC000B1
:1000FE008400405402C0C0FD8400405401000B53E4
:10010E008400405400E0200D8400405402C0C0FF23
:10011E00840040540220B030840040540200215C20
:10012E008400405402C0C0FC840040540300888CFC
:10013E00840040540310888C8400405402C0C000D8
:10014E0084004054000091408400405402C0C0041A
:10015E0084004054020062648400405400009140C8
:10016E008400405402C4C0128400405400040600AF
:10017E008400405402C0C0008400405401A0000717
:10018E008400405401C0003C8400405401A040074C
:10019E008400405401C0000084004054000091408F
:1001AE008400405402C0C00084004054000013403C
:1001BE008400405400800DE18400405402C0C0040D
:1001CE008400405403603EA08400405402C0C0032B
:1001DE00840040540200111784004054022088000D
:1001EE008400405402C0C0008400405402003B60B2
:1001FE0084004054000091408500405402D0C0005D
:10020E008500405402D1C0008500405402D2C00087
:10021E008500405402D3C0008500405402D4C00073
:10022E008500405402D5C0008500405402D6C0005F
:10023E008500405402D7C0008500405402D8C0004B
:10024E008500405402D9C0008500405402DAC00037
:10025E008500405402DBC0008500405402DCC00023
:10026E008500405402DDC0008500405402DEC0000F
:10027E008500405402DFC0008500405402C0C0FD1E
:10028E008500405401000B538500405400E0200DC2
:10029E008500405402C0C0FF850040540220B0309B
:1002AE00850040540200215C8500405402C0C0FC11
:1002BE00850040540300888C850040540310888CC0
:1002CE008500405402C0C00085004054000091409B
:1002DE008500405402C0C0FD8500405401000B5300
:1002EE008500405400E0200D8500405402C0C0043B
:1002FE008500405402006264850040540000914025
:10030E008500405402C4C01285004054000406000B
:10031E008500405402C0C0008500405401A0000773
:10032E008500405401C0003C8500405401A04007A8
:10033E008500405401C000008500405400009140EB
:10034E008500405402C0C000850040540000134098
:10035E008500405400800DE18500405402C0C00469
:10036E008500405403603EA08500405402C0C00387
:10037E008500405402001117850040540220880069
:10038E008500405402C0C0008500405402003B600E
:10039E0085004054000091409800000000003E800F
:1003AE009800100000003E809800200000003E8063
:1003BE009800300000003E809800400000003E8013
:1003CE009800500000003E80800000F80000000001
:1003DE00800000F800000001800000F8000000021C
:1003EE00800000F800000003800000F80000000408
:1003FE00800000F800000005800000F800000006F4
:10040E00800000F800000007800000F800000008DF
:10041E00800000F8000000099800000400000008A9
:10042E009800100400000008980020040000000846
:10043E0098003004000000089800400400000008F6
:10044E009800500400000008800000F80000000032
:10045E00800000F800000001800000F8000000029B
:10046E00800000F800000003800000F80000000487
:10047E00800000F800000005800000F80000000673
:10048E00800000F800000007800000F8000000085F
:10049E00800000F8000000099800020C0000800A9D
:1004AE009800120C0000800A9800220C0000800AAE
:1004BE009800320C0000800A9800420C0000800A5E
:1004CE009800520C0000800A98000210000044149C
:1004DE0098001210000044149800221000004414DA
:1004EE00980032100000441498004210000044148A
:1004FE009800521000004414980002140000A150FD
:10050E00980012140000A150980022140000A1506F
:10051E00980032140000A150980042140000A1501F
:10052E00980052140000A150980002180000BAABB7
:10053E00980012180000BAAB980022180000BAAB4F
:10054E00980032180000BAAB980042180000BAABFF
:10055E00980052180000BAAB9800021C0000882CBC
:10056E009800121C0000882C9800221C0000882C79
:10057E009800321C0000882C9800421C0000882C29
:10058E009800521C0000882C980003CC000020001C
:10059E00980013CC00002000980023CC000020000F
:1005AE00980033CC00002000980043CC00002000BF
:1005BE00980053CC000020009800022C0000000090
:1005CE009800122C000000009800222C0000000061
:1005DE009800322C000000009800422C0000000011
:1005EE009800522C0000000098000230000000001D
:1005FE009800123000000000980022300000000029
:10060E0098003230000000009800423000000000D8
:10061E0098005230000000009800023400004000A4
:10062E009800123400004000980022340000400070
:10063E009800323400004000980042340000400020
:10064E0098005234000040009800023C0000001850
:10065E009800123C000000189800223C0000001880
:10066E009800323C000000189800423C0000001830
:10067E009800523C00000018980002500000A0C0E4
:10068E00980012500000A0C0980022500000A0C098
:10069E00980032500000A0C0980042500000A0C048
:1006AE00980052500000A0C0800000F8000000002A
:1006BE00800000F800000001800000F80000000239
:1006CE00800000F800000003800000F80000000425
:1006DE00980002500000A060980012500000A06028
:1006EE00980022500000A060980032500000A060D8
:1006FE00980042500000A060980052500000A06088
:10070E00980002540000550398001254000055033F
:10071E0098002254000055039800325400005503EF
:10072E00980042540000550398005254000055039F
:10073E0098000258000000009800125800000000B7
:10074E009800225800000000980032580000000067
:10075E009800425800000000980052580000000017
:10076E009800027C000090AA9800127C000090AACB
:10077E009800227C000090AA9800327C000090AA7B
:10078E009800427C000090AA9800527C000090AA2B
:10079E0098000280000008009800128000000800F7
:1007AE0098002280000008009800328000000800A7
:1007BE009800428000000800980052800000080057
:1007CE009800028C000003719800128C00000371D7
:1007DE009800228C000003719800328C0000037187
:1007EE009800428C000003719800528C0000037137
:1007FE009800035C0000423F9800135C0000423FEB
:10080E009800235C0000423F9800335C0000423F9A
:10081E009800435C0000423F9800535C0000423F4A
:10082E009800036400005555980013640000555558
:10083E009800236400005555980033640000555508
:10084E0098004364000055559800536400005555B8
:10085E009800036C000000009800136C000000006C
:10086E009800236C000000009800336C000000001C
:10087E009800436C000000009800536C00000000CC
:10088E00980002340000400098001234000040002E
:10089E0098002234000040009800323400004000DE
:1008AE00980042340000400098005234000040008E
:1008BE00980002280000E0C0980012280000E0C056
:1008CE00980022280000E0C0980032280000E0C006
:1008DE00980042280000E0C0980052280000E0C0B6
:1008EE009800036C000080409800136C000080405C
:1008FE009800236C000080409800336C000080400C
:10090E009800436C000080409800536C00008040BB
:10091E009800036C000080009800136C00008000AB
:10092E009800236C000080009800336C000080005B
:10093E009800436C000080009800536C000080000B
:10094E00800000F800000000800000F800000001A8
:10095E00800000F800000002800000F80000000394
:10096E00800000F800000004800000F80000000580
:10097E00800000F800000006800000F8000000076C
:10098E00800000F800000008800000F80000000958
:10099E0098000224000000009800122400000000BD
:1009AE00980022240000000098003224000000006D
:1009BE00980042240000000098005224000000001D
:1009CE00980002240000800098001224000080008D
:1009DE00980022240000800098003224000080003D
:1009EE0098004224000080009800522400008000ED
:1009FE00980002240000000098001224000000005D
:100A0E00980022240000000098003224000000000C
:100A1E0098004224000000009800522400000000BC
:100A2E00800000F800000000800000F800000001C7
:100A3E00800000F800000002800000F800000003B3
:100A4E00800000F800000004800000F8000000059F
:100A5E00800000F800000006800000F8000000078B
:100A6E00800000F800000008800000F80000000977
:100A7E0098000004000000189800100400000018F0
:100A8E0098002004000000189800300400000018A0
:100A9E009800400400000018980050040000001850
:100AAE00800000F800000000800000F80000000147
:100ABE00800000F800000002800000F80000000333
:100ACE00800000F800000004800000F8000000051F
:100ADE00800000F800000006800000F8000000070B
:100AEE00800000F800000008800000F800000009F7
:100AFE009800000400000008980010040000000890
:100B0E00980020040000000898003004000000083F
:100B1E0098004004000000089800500400000008EF
:100B2E00800000F800000000800000F800000001C6
:100B3E00800000F800000002800000F800000003B2
:100B4E00800000F800000004800000F8000000059E
:100B5E00800000F800000006800000F8000000078A
:100B6E00800000F800000008800000F80000000976
:100B7E0098000004000000289800100400000028CF
:100B8E00980020040000002898003004000000287F
:100B9E00980040040000002898005004000000282F
:100BAE00800000F800000000800000F80000000146
:100BBE00800000F800000002800000F80000000332
:100BCE00800000F800000004800000F8000000051E
:100BDE00800000F800000006800000F8000000070A
:100BEE00800000F800000008800000F800000009F6
:100BFE00900000000000D001900004000000D00121
:100C0E00900008000000D00190000C000000D00100
:100C1E00900010000000D001900014000000D001E0
:100C2E00900018000000D00190001C000000D001C0
:100C3E00900020000000D001900024000000D001A0
:100C4E00900028000000D00190002C000000D00180
:100C5E00900030000000D001900034000000D00160
:100C6E00900038000000D00190003C000000D00140
:100C7E00900040000000D001900044000000D00120
:100C8E00900048000000D00190004C000000D00100
:100C9E00900050000000D001900054000000D001E0
:100CAE00900058000000D00190005C000000D001C0
:100CBE009000000400000011900004040000009158
:100CCE00900008040000011190000C040000019136
:100CDE009000100400000211900014040000029114
:100CEE00900018040000031190001C0400000391F2
:100CFE0090002004000004119000240400000491D0
:100D0E00900028040000051190002C0400000591AD
:100D1E00900030040000061190003404000006918B
:100D2E00900038040000071190003C040000079169
:100D3E009000400400000811900044040000089147
:100D4E00900048040000091190004C040000099125
:100D5E009000500400000A119000540400000A9103
:100D6E009000580400000B1190005C0400000B91E1
:100D7E009000000C0000BAE49000040C0000BAE4ED
:100D8E009000080C0000BAE490000C0C0000BAE4CD
:100D9E009000100C0000BAE49000140C0000BAE4AD
:100DAE009000180C0000BAE490001C0C0000BAE48D
:100DBE009000200C0000BAE49000240C0000BAE46D
:100DCE009000280C0000BAE490002C0C0000BAE44D
:100DDE009000300C0000BAE49000340C0000BAE42D
:100DEE009000380C0000BAE490003C0C0000BAE40D
:100DFE009000400C0000BAE49000440C0000BAE4ED
:100E0E009000480C0000BAE490004C0C0000BAE4CC
:100E1E009000500C0000BAE49000540C0000BAE4AC
:100E2E009000580C0000BAE490005C0C0000BAE48C
:100E3E00900000080000C009900004080000C009DE
:100E4E00900008080000C00990000C080000C009BE
:100E5E00900010080000C009900014080000C0099E
:100E6E00900018080000C00990001C080000C0097E
:100E7E00900020080000C009900024080000C0095E
:100E8E00900028080000C00990002C080000C0093E
:100E9E00900030080000C009900034080000C0091E
:100EAE00900038080000C00990003C080000C009FE
:100EBE00900040080000C009900044080000C009DE
:100ECE00900048080000C00990004C080000C009BE
:100EDE00900050080000C009900054080000C0099E
:100EEE00900058080000C00990005C080000C0097E
:100EFE00900000C400000100900004C40000010036
:100F0E00900008C40000010090000CC40000010015
:100F1E00900010C400000100900014C400000100F5
:100F2E00900018C40000010090001CC400000100D5
:100F3E00900020C400000100900024C400000100B5
:100F4E00900028C40000010090002CC40000010095
:100F5E00900030C400000100900034C40000010075
:100F6E00900038C40000010090003CC40000010055
:100F7E00900040C400000100900044C40000010035
:100F8E00900048C40000010090004CC40000010015
:100F9E00900050C400000100900054C400000100F5
:100FAE00900058C40000010090005CC400000100D5
:100FBE0090000014000008D690000414000008D61B
:100FCE0090000814000008D690000C14000008D6FB
:100FDE0090001014000008D690001414000008D6DB
:100FEE0090001814000008D690001C14000008D6BB
:100FFE0090002014000008D690002414000008D69B
:10100E0090002814000008D690002C14000008D67A
:10101E0090003014000008D690003414000008D65A
:10102E0090003814000008D690003C14000008D63A
:10103E0090004014000008D690004414000008D61A
:10104E0090004814000008D690004C14000008D6FA
:10105E0090005014000008D690005414000008D6DA
:10106E0090005814000008D690005C14000008D6BA
:10107E0082000000480000008200100048000000BE
:10108E00820020004800000082003000480000006E
:10109E00820040004800000082005000480000001E
:1010AE0082006000480000008200700048000000CE
:1010BE00820080004800000082009000480000007E
:1010CE008200A000480000008200B000480000002E
:1010DE008200C000480000008200D00048000000DE
:1010EE008200E000480000008200F000480000008E
:1010FE00820100004800000082011000480000003C
:10110E0082012000480000008201300048000000EB
:10111E00820140004800000082015000480000009B
:10112E00820160004800000082017000480000004B
:10113E00820400040000FD90820402000000000002
:10114E008204020400000000820402080000000075
:10115E008204020C00000000820402100000000055
:10116E008204021400000000820402180000000035
:10117E008204021C0000000082040220000004040D
:10118E0082040224000004048204022800000404E5
:10119E008204022C000004048204023000000808BD
:1011AE008204023400000808820402380000080895
:1011BE008204023C00000808820402400000080875
:1011CE008204024400000808820402480000080855
:1011DE008204024C000008088204025000000C0C2D
:1011EE008204025400000C0C8204025800000C0C05
:1011FE008204025C00000C0C8204026000000808ED
:10120E0082040264000008088204026800000808D4
:10121E008204026C000008088204027000000808B4
:10122E008204027400000808820402780000080894
:10123E008204027C00000808818005000804020177
:10124E00830000007FCFF3FC830000200360740E48
:10125E0081800004039227F381800C800000260811
:10126E0081800C000000260981800C1000002609E8
:10127E0081800C200000260981800C300000260998
:10128E00800000A02603023E800000A40001001989
:10129E0087800004020000008400405402C0C00495
:1012AE0084004054000091408400405402C000006D
:1012BE008500405402C0C004850040540000914097
:1012CE008500405402C000008A0020005500000333
:1012DE00820400000800001186000000000060A1DA
:1012EE00800000F803222018800000000000600932
:1012FE00FFFF8200000400010002820020040001B2
:10130E000004820040040007000682006004000909
:10131E00000882008004000B000A8200A004000D69
:10132E00000C8200C004000F000E8200E0040005D5
:10133E0000038A000004000207028A00000800026F
:10134E000B048A00000C00020F068A000010000237
:10135E0013088A0000140002170A8A0000180002FF
:10136E001B0C8A00001C00021F0E8A002020450064
:10137E0000138A002024000000008A0020280000AC
:10138E0000008A002030440000138A002034001030
:10139E0000008A002038000000008A00204054001F
:1013AE0000138A002044000000008A00204800003C
:1013BE0000008A002050440000138A002054004090
:1013CE0000008A002058000000008A0020604400BF
:1013DE0000138A002064000000018A0020680000CB
:1013EE0000008A002070440000138A002074000060
:1013FE0000048A002078000000008A00208044004B
:10140E0000138A002084000000108A00208800004B
:10141E0000008A002090440000138A0020940000EF
:10142E0000408A002098000000008A0020A044009E
:10143E0000138A0020A4000001008A0020A80000EA
:10144E0000008A0020B0440000138A0020B400007F
:10145E0004008A0020B8000000008A0020C044006A
:10146E0000138A0020C4000010008A0020C800006B
:10147E0000008A0020D0440000138A0020D400000F
:10148E0040008A0020D8000000008A0020E04400BE
:10149E0000138A0020E4000100008A0020E800000A
:1014AE0000008A0020F0440000138A0020F400049B
:1014BE0000008A0020F800000000800000F80322DF
:0C14CE0020188000000000006001FFFFFB
:06166D008E168F178D1888
:10167300E4F519A907E9C394805004E4F9800279D9
:10168300807D807C02E97A002400FFEA3516F51A92
:101693008F1BED7003EC6403601E851B82851A8328
:1016A300E4938D828C83F005190DBD00010C051B9D
:1016B300E51B70DE051A80DAAB17A903E9C3948032
:1016C300E950072480FFE43380062400FFE434025A
:1016D300FCAD078D828C83E518F08BA6E516FFF52C
:1016E300A775AEFFA2AF9208C2AF75C7AA75C7555B
:1016F300439F01A20892AFA2AF9208C2AF75C7AAD7
:1017030075C75543A501A20892AF75AF22A2AF9248
:1017130008C2AF75C7AA75C75543A401A20892AF03
:10172300A903E9C394805004E4F9800279807C0220
:101733007D8089A68FA7A2AF9208C2AF75C7AA758D
:10174300C755439F01A20892AFA2AF9208C2AF75DB
:10175300C7AA75C75543A501A20892AF75AF21ED7E
:101763007003EC640360238D828C83E0F5AEA2AF3B
:101773009208C2AF75C7AA75C75543A401A20892C0
:10178300AF05A60DBD00010C80D5A2AF9208C2AF74
:1017930075C7AA75C75553A5FEA20892AFA2AF920B
:1017A30008C2AF75C7AA75C755539FFEA20892AF6B
:0117B3002213
:041E54008F828E8368
:031E5800E493FF11
:011E5B002264
:1019B4000218A6E493A3F8E493A34003F68001F28B
:1019C40008DFF48029E493A3F85407240CC8C33334
:1019D400C4540F4420C8834004F456800146F6DF03
:1019E400E4800B0102040810204080901E63E47E12
:1019F400019360BCA3FF543F30E509541FFEE493F8
:101A0400A360010ECF54C025E060A840B8E493A3BE
:101A1400FAE493A3F8E493A3C8C582C8CAC583CAE9
:101A2400F0A3C8C582C8CAC583CADFE9DEE780BEA1
:011E68000079
:1017B40075F008758200EF2FFFEE33FECD33CDCCEC
:1017C40033CCC58233C5829BED9AEC99E58298406F
:1017D4000CF582EE9BFEED9AFDEC99FC0FD5F0D64C
:1017E400E4CEFBE4CDFAE4CCF9A88222B800C1B976
:1017F4000059BA002DEC8BF084CFCECDFCE5F0CBB4
:10180400F97818EF2FFFEE33FEED33FDEC33FCEBEC
:1018140033FB10D703994004EB99FB0FD8E5E4F9A7
:10182400FA227818EF2FFFEE33FEED33FDEC33FC94
:10183400C933C910D7059BE99A4007EC9BFCE99A88
:10184400F90FD8E0E4C9FAE4CCFB2275F010EF2FCD
:10185400FFEE33FEED33FDCC33CCC833C810D707CD
:101864009BEC9AE899400AED9BFDEC9AFCE899F808
:0E1874000FD5F0DAE4CDFBE4CCFAE4C8F9229B
:10188200EB9FF5F0EA9E42F0E99D42F0E89C45F0BC
:011892002233
:10189300E8600FECC313FCED13FDEE13FEEF13FF33
:0318A300D8F12257
:00000001FF
